{
  "contractName": "RockPaperScissors",
  "abi": [
    {
      "anonymous": false,
      "inputs": [
        {
          "indexed": false,
          "internalType": "string",
          "name": "result",
          "type": "string"
        }
      ],
      "name": "GameResult",
      "type": "event"
    },
    {
      "inputs": [
        {
          "internalType": "enum RockPaperScissors.Move",
          "name": "playerMove",
          "type": "uint8"
        }
      ],
      "name": "play",
      "outputs": [
        {
          "internalType": "string",
          "name": "",
          "type": "string"
        }
      ],
      "stateMutability": "nonpayable",
      "type": "function"
    }
  ],
  "bytecode": "0x608060405234801561001057600080fd5b5061070f806100206000396000f3fe608060405234801561001057600080fd5b506004361061002b5760003560e01c806353a04b0514610030575b600080fd5b61004a6004803603810190610045919061053f565b610060565b60405161005791906105d3565b60405180910390f35b6060600060034260405160200161007791906105b8565b6040516020818303038152906040528051906020012060001c61009a9190610658565b905060008160028111156100d7577f4e487b7100000000000000000000000000000000000000000000000000000000600052602160045260246000fd5b90506060816002811115610114577f4e487b7100000000000000000000000000000000000000000000000000000000600052602160045260246000fd5b85600281111561014d577f4e487b7100000000000000000000000000000000000000000000000000000000600052602160045260246000fd5b1415610190576040518060400160405280600c81526020017f497427732061206472617721000000000000000000000000000000000000000081525090506104e8565b600060028111156101ca577f4e487b7100000000000000000000000000000000000000000000000000000000600052602160045260246000fd5b856002811115610203577f4e487b7100000000000000000000000000000000000000000000000000000000600052602160045260246000fd5b14801561027f5750600280811115610244577f4e487b7100000000000000000000000000000000000000000000000000000000600052602160045260246000fd5b82600281111561027d577f4e487b7100000000000000000000000000000000000000000000000000000000600052602160045260246000fd5b145b8061037557506002808111156102be577f4e487b7100000000000000000000000000000000000000000000000000000000600052602160045260246000fd5b8560028111156102f7577f4e487b7100000000000000000000000000000000000000000000000000000000600052602160045260246000fd5b148015610374575060016002811115610339577f4e487b7100000000000000000000000000000000000000000000000000000000600052602160045260246000fd5b826002811115610372577f4e487b7100000000000000000000000000000000000000000000000000000000600052602160045260246000fd5b145b5b8061046c5750600160028111156103b5577f4e487b7100000000000000000000000000000000000000000000000000000000600052602160045260246000fd5b8560028111156103ee577f4e487b7100000000000000000000000000000000000000000000000000000000600052602160045260246000fd5b14801561046b575060006002811115610430577f4e487b7100000000000000000000000000000000000000000000000000000000600052602160045260246000fd5b826002811115610469577f4e487b7100000000000000000000000000000000000000000000000000000000600052602160045260246000fd5b145b5b156104ae576040518060400160405280600c81526020017f506c617965722077696e7321000000000000000000000000000000000000000081525090506104e7565b6040518060400160405280600e81526020017f436f6d70757465722077696e732100000000000000000000000000000000000081525090505b5b7f7a4de1685bde7e678248f7dc86ee1bd74b93de9036bb3a87d406a80832eba0178160405161051791906105d3565b60405180910390a1809350505050919050565b600081359050610539816106c9565b92915050565b60006020828403121561055157600080fd5b600061055f8482850161052a565b91505092915050565b6000610573826105f5565b61057d8185610600565b935061058d81856020860161061b565b610596816106b8565b840191505092915050565b6105b26105ad82610611565b61064e565b82525050565b60006105c482846105a1565b60208201915081905092915050565b600060208201905081810360008301526105ed8184610568565b905092915050565b600081519050919050565b600082825260208201905092915050565b6000819050919050565b60005b8381101561063957808201518184015260208101905061061e565b83811115610648576000848401525b50505050565b6000819050919050565b600061066382610611565b915061066e83610611565b92508261067e5761067d610689565b5b828206905092915050565b7f4e487b7100000000000000000000000000000000000000000000000000000000600052601260045260246000fd5b6000601f19601f8301169050919050565b600381106106d657600080fd5b5056fea2646970667358221220f195e8c6545cd604fe263dd27e19f7546a83eba8e7d4439b580b2ff4a8d97bd764736f6c63430008000033",
  "immutableReferences": {},
  "source": "// SPDX-License-Identifier: MIT\r\npragma solidity ^0.8.0;\r\n\r\ncontract RockPaperScissors {\r\n    enum Move { Rock, Paper, Scissors }\r\n    \r\n    // Event to emit the result of the game.\r\n    event GameResult(string result);\r\n\r\n    function play(Move playerMove) public returns (string memory) {\r\n        uint computerMove = uint(keccak256(abi.encodePacked(block.timestamp))) % 3;\r\n        Move compMove = Move(computerMove);\r\n        string memory outcome;\r\n\r\n        if(playerMove == compMove) {\r\n            outcome = \"It's a draw!\";\r\n        } else if ((playerMove == Move.Rock && compMove == Move.Scissors) || \r\n                   (playerMove == Move.Scissors && compMove == Move.Paper) || \r\n                   (playerMove == Move.Paper && compMove == Move.Rock)) {\r\n            outcome = \"Player wins!\";\r\n        } else {\r\n            outcome = \"Computer wins!\";\r\n        }\r\n        \r\n        emit GameResult(outcome); // Emitting the event with the game result\r\n        return outcome;\r\n    }\r\n}\r\n",
  "sourcePath": "C:\\Users\\marti\\Documents\\projects\\rock-paper-scissors\\contracts\\RockPaperScissors.sol",
  "compiler": {
    "name": "solc",
    "version": "0.8.0+commit.c7dfd78e.Emscripten.clang"
  },
  "schemaVersion": "3.4.16",
  "updatedAt": "2024-01-04T13:57:30.615Z",
  "networkType": "ethereum",
  "devdoc": {
    "kind": "dev",
    "methods": {},
    "version": 1
  },
  "userdoc": {
    "kind": "user",
    "methods": {},
    "version": 1
  }
}