{
  "contractName": "RockPaperScissors",
  "abi": [
    {
      "inputs": [
        {
          "internalType": "enum RockPaperScissors.Move",
          "name": "playerMove",
          "type": "uint8"
        }
      ],
      "name": "play",
      "outputs": [
        {
          "internalType": "string",
          "name": "",
          "type": "string"
        }
      ],
      "stateMutability": "view",
      "type": "function"
    }
  ],
  "bytecode": "0x608060405234801561001057600080fd5b506106e8806100206000396000f3fe608060405234801561001057600080fd5b506004361061002b5760003560e01c806353a04b0514610030575b600080fd5b61004a60048036038101906100459190610507565b610060565b60405161005791906105ac565b60405180910390f35b6060600060034244604051602001610079929190610580565b6040516020818303038152906040528051906020012060001c61009c9190610631565b905060008160028111156100d9577f4e487b7100000000000000000000000000000000000000000000000000000000600052602160045260246000fd5b9050806002811115610114577f4e487b7100000000000000000000000000000000000000000000000000000000600052602160045260246000fd5b84600281111561014d577f4e487b7100000000000000000000000000000000000000000000000000000000600052602160045260246000fd5b1415610192576040518060400160405280600c81526020017f4974277320612064726177210000000000000000000000000000000000000000815250925050506104ed565b600060028111156101cc577f4e487b7100000000000000000000000000000000000000000000000000000000600052602160045260246000fd5b846002811115610205577f4e487b7100000000000000000000000000000000000000000000000000000000600052602160045260246000fd5b1480156102815750600280811115610246577f4e487b7100000000000000000000000000000000000000000000000000000000600052602160045260246000fd5b81600281111561027f577f4e487b7100000000000000000000000000000000000000000000000000000000600052602160045260246000fd5b145b8061037757506002808111156102c0577f4e487b7100000000000000000000000000000000000000000000000000000000600052602160045260246000fd5b8460028111156102f9577f4e487b7100000000000000000000000000000000000000000000000000000000600052602160045260246000fd5b14801561037657506001600281111561033b577f4e487b7100000000000000000000000000000000000000000000000000000000600052602160045260246000fd5b816002811115610374577f4e487b7100000000000000000000000000000000000000000000000000000000600052602160045260246000fd5b145b5b8061046e5750600160028111156103b7577f4e487b7100000000000000000000000000000000000000000000000000000000600052602160045260246000fd5b8460028111156103f0577f4e487b7100000000000000000000000000000000000000000000000000000000600052602160045260246000fd5b14801561046d575060006002811115610432577f4e487b7100000000000000000000000000000000000000000000000000000000600052602160045260246000fd5b81600281111561046b577f4e487b7100000000000000000000000000000000000000000000000000000000600052602160045260246000fd5b145b5b156104b2576040518060400160405280600c81526020017f506c617965722077696e73210000000000000000000000000000000000000000815250925050506104ed565b6040518060400160405280600e81526020017f436f6d70757465722077696e7321000000000000000000000000000000000000815250925050505b919050565b600081359050610501816106a2565b92915050565b60006020828403121561051957600080fd5b6000610527848285016104f2565b91505092915050565b600061053b826105ce565b61054581856105d9565b93506105558185602086016105f4565b61055e81610691565b840191505092915050565b61057a610575826105ea565b610627565b82525050565b600061058c8285610569565b60208201915061059c8284610569565b6020820191508190509392505050565b600060208201905081810360008301526105c68184610530565b905092915050565b600081519050919050565b600082825260208201905092915050565b6000819050919050565b60005b838110156106125780820151818401526020810190506105f7565b83811115610621576000848401525b50505050565b6000819050919050565b600061063c826105ea565b9150610647836105ea565b92508261065757610656610662565b5b828206905092915050565b7f4e487b7100000000000000000000000000000000000000000000000000000000600052601260045260246000fd5b6000601f19601f8301169050919050565b600381106106af57600080fd5b5056fea2646970667358221220ef932fc2e7adca63e2675076e1a02dd9fe0bfa99806033516b6b3a77104c8c8364736f6c63430008000033",
  "immutableReferences": {},
  "source": "// SPDX-License-Identifier: MIT\r\npragma solidity ^0.8.0;\r\n\r\ncontract RockPaperScissors {\r\n    enum Move { Rock, Paper, Scissors }\r\n\r\n    function play(Move playerMove) public view returns (string memory) {\r\n        uint computerMove = uint(keccak256(abi.encodePacked(block.timestamp, block.difficulty))) % 3;\r\n        Move compMove = Move(computerMove);\r\n\r\n        if(playerMove == compMove) {\r\n            return \"It's a draw!\";\r\n        } else if ((playerMove == Move.Rock && compMove == Move.Scissors) || \r\n                   (playerMove == Move.Scissors && compMove == Move.Paper) || \r\n                   (playerMove == Move.Paper && compMove == Move.Rock)) {\r\n            return \"Player wins!\";\r\n        } else {\r\n            return \"Computer wins!\";\r\n        }\r\n    }\r\n}\r\n",
  "sourcePath": "C:\\Users\\marti\\Documents\\projects\\rock-paper-scissors\\contracts\\RockPaperScissors.sol",
  "compiler": {
    "name": "solc",
    "version": "0.8.0+commit.c7dfd78e.Emscripten.clang"
  },
  "schemaVersion": "3.4.16",
  "updatedAt": "2024-01-03T12:12:12.619Z",
  "devdoc": {
    "kind": "dev",
    "methods": {},
    "version": 1
  },
  "userdoc": {
    "kind": "user",
    "methods": {},
    "version": 1
  }
}